:020000040800F2
:109000000000022041A30008E5A10008EDA100082E
:10901000F5A10008FDA1000805A20008000000005D
:109020000000000000000000000000000DA2000889
:109030001BA200080000000029A2000837A20008B7
:1090400091A3000891A3000891A3000891A3000830
:1090500091A3000891A3000891A3000891A3000820
:1090600091A3000891A3000891A3000845A200085D
:1090700059A200086DA2000891A3000891A300085E
:1090800091A3000891A3000891A3000891A30008F0
:1090900091A3000891A3000891A3000891A30008E0
:1090A00091A3000891A3000881A2000891A30008E1
:1090B00091A3000891A3000891A3000891A30008C0
:1090C00091A3000891A3000891A3000891A30008B0
:1090D00091A3000891A3000891A3000891A30008A0
:1090E00091A3000891A3000891A3000891A3000890
:1090F00091A3000891A3000891A3000891A3000880
:1091000091A3000891A3000891A3000891A300086F
:1091100091A3000891A3000891A3000891A300085F
:1091200091A3000891A3000891A3000891A300084F
:1091300091A3000891A3000891A3000891A300083F
:1091400091A3000891A3000891A30008000000006B
:10915000000000000000000000000000000000000F
:1091600000000000000000000000000091A30008C3
:1091700091A3000891A3000891A3000891A30008FF
:1091800091A3000891A3000891A3000891A30008EF
:1091900091A300080000000095A20008A9A2000801
:1091A000BDA20008D1A2000891A30008E5A2000812
:1091B00091A3000891A3000891A3000891A30008BF
:1091C00091A3000891A3000891A3000891A30008AF
:0891D00091A3000891A300081F
:1091D80053B94AB9002908BF00281CBF4FF0FF3116
:1091E8004FF0FF3000F00CB8ADF1080C6DE904CE7B
:1091F80009F0BAF9DDF804E0DDE9022304B07047AC
:10920800704700BF0348044B834202D0034B03B1AD
:1092180018477047B4010020B40100200000000086
:109228000548064B1B1AD90F01EBA301491002D0C0
:10923800034B03B118477047B4010020B401002064
:109248000000000010B5064C237843B9FFF7DAFF99
:10925800044B13B10448AFF300800123237010BD01
:10926800B401002000000000A428010808B5054B3F
:109278001BB105490548AFF30080BDE80840FFF77A
:10928800CFBF00BF00000000B8010020A4280108DB
:1092980002440346934200D1704703F8011BF9E7E3
:1092A80070B50D4B0D4D5B1B9C100026A64209D1D5
:1092B80009F0F4FA0A4D0B4B5B1B9C100026A642E2
:1092C80005D170BD55F8043B98470136EEE755F8CF
:1092D800043B98470136F2E744320108443201085A
:1092E8004432010848320108B0B5ADF5667D00AFDB
:1092F80003F09AFE00F06EF900F0BCF900F07CFA79
:1093080000F0B4FA00F0FAFA00F060FC00F036FD64
:109318009F4B07F555741D460FCD0FC495E80F00F8
:1093280007C4238007F555731D221946994806F08E
:1093380081F902F095FB984B1B78184602F0A8FAC1
:1093480007F56673A3F5E273184602F0BDFC07F54E
:10935800EA73184602F082FD07F56673A3F5E27416
:109368003B46184602F0B0FC07F56673A3F5667332
:10937800204619464FF4C0731A4609F081FA07F5DA
:10938800E6730822FF211846FFF782FF07F5E2730C
:10939800082200211846FFF77BFF07F5E273023326
:1093A8000622FF211846FFF773FF07F5DE73082230
:1093B80000211846FFF76CFF774B1B78002B14D061
:1093C80007F56673A3F5FC73744A1C4615460FCD62
:1093D8000FC495E8070003C4228007F5D07319224B
:1093E80019466C4806F026F913E007F56673A3F5ED
:1093F80005736B4A1C4615460FCD0FC495E8070048
:1094080003C4227007F5C27318221946614806F092
:1094180011F902F05BFB02F07DFB0023C7F89433DF
:109428000023C7F890330023C7F88C330523C7F807
:1094380084336423C7F880334FF47A73C7F87C33D6
:109448000023C7F8883300F0E7FF01F081F802F045
:10945800A9FC034687F87B3397F87B33002B01D0B0
:1094680002F0CEFD03F044FEC7F87403D7F8742366
:10947800D7F89433D31AD7F884239A4212D8D7F856
:109488007433C7F89433474B01221A70464B0122B4
:109498001A70464B01221A70454B01221A70454B2F
:1094A80001221A70D7F87423D7F89033D31AD7F853
:1094B80080239A420BD8D7F87433C7F8903302F058
:1094C80009FA3D4B01221A703C4B01221A70D7F859
:1094D8007423D7F88C33D31AD7F87C239A42C1D88F
:1094E800D7F87433C7F88C3302F0E6FAD7F8880354
:1094F80002F03CFAC7F88803314B5B78002B2AD07E
:10950800304B1B7883F00103DBB2002B0AD000F04C
:10951800E3FC00212C4807F0E9FC02F0D7FA294BBC
:1095280001221A70002002F0B5FA254BDB78002BD7
:1095380008D007F5E672082340F28531234801F088
:1095480017FA8FE707F5E272082340F285311F48C2
:1095580001F00EFA86E7012002F09CFA07F5DE72A8
:10956800082340F28531194801F002FA184B1B68AC
:10957800002B05D0164B1B68013B154A136071E799
:10958800134B1B68002B7FF46DAF02F09FFA69E75D
:10959800BC280108A402002050050020DC2801088E
:1095A800F8280108D0010020D1010020D2010020B4
:1095B800D3010020D4010020D5010020D6010020CD
:1095C80000000020D7010020E4030020D80100207B
:1095D800F404002080B594B000AF07F118033822D6
:1095E80000211846FFF754FE3B1D00221A605A60FE
:1095F8009A60DA601A61002005F0BCFD0123BB61A6
:109608004FF48033FB6102237B630323BB63012395
:10961800FB6328233B6402237B640223BB6402238D
:10962800FB6407F11803184603F090FD0346002B6E
:1096380001D000F018F80F237B600323BB600023E0
:10964800FB6000233B6100237B613B1D042118461E
:1096580004F08EF80346002B01D000F004F800BF98
:109668005037BD4680BD80B400AF72B600BF00BFA2
:10967800FDE7000080B58CB000AF07F11C030022A5
:109688001A605A609A60DA601A61564BDB6C554A68
:1096980043F00403D364534BDB6C03F00403BB6156
:1096A800BB69504BDB6C4F4A43F02003D3644D4BEE
:1096B800DB6C03F020037B617B694A4BDB6C494A16
:1096C80043F04003D364474BDB6C03F040033B613A
:1096D8003B69444BDB6C434A43F00103D364414B81
:1096E800DB6C03F00103FB60FB683E4BDB6C3D4A1F
:1096F80043F00203D3643B4BDB6C03F00203BB6013
:10970800BB68384BDB6C374A43F00803D364354BEE
:10971800DB6C03F008037B607B680122C0213248C0
:1097280005F0C4F94FF6FF73FB6103233B62002386
:109738007B6207F11C0319462C4804F03BFF4FF4E9
:109748008063FB6103233B6200237B6207F11C03F8
:109758001946274804F02EFF41F6F773FB610323EF
:109768003B6200237B6207F11C0319464FF09040CF
:1097780004F020FF0823FB6100233B6201237B6286
:1097880007F11C0319464FF0904004F013FF4CF208
:109798002733FB6103233B6200237B6207F11C0331
:1097A8001946114804F006FF0423FB6103233B62BA
:1097B80000237B6207F11C0319460E4804F0FAFEE9
:1097C800C023FB6101233B6201237B620023BB6250
:1097D80007F11C031946044804F0ECFE00BF3037BB
:1097E800BD4680BD00100240000400480008004843
:1097F80000180048000C004880B582B000AF1A4B32
:109808009B6C194A43F004039364174B9B6C03F059
:1098180004037B607B68144B9B6C134A43F0010381
:109828009364114B9B6C03F001033B603B6800227F
:1098380000210B2005F067FE0B2005F07EFE0022BC
:1098480000210C2005F05FFE0C2005F076FE0022BA
:1098580000210D2005F057FE0D2005F06EFE00BF1B
:109868000837BD4680BD00BF0010024080B500AF7C
:10987800204B214A1A601F4B00225A601D4B4FF49F
:1098880040729A601B4B0022DA601A4B01221A744C
:10989800184B00225A74174B00229A74154B102249
:1098A8005A61144B01229A61124B0722DA61114B5B
:1098B80002221A620F4B04225A620E4B01229A624C
:1098C8000C4B0522DA620B4B02221A63094B1C224D
:1098D8005A63084B08229A63064B0022DA6305484C
:1098E80002F0D2FB0346002B01D0FFF7BCFE00BFFD
:1098F80080BD00BFD80100200068004080B500AFDF
:10990800204B214A1A601F4B00225A601D4B4FF40E
:1099180040729A601B4B0022DA601A4B01221A74BB
:10992800184B00225A74174B00229A74154B1022B8
:109938005A61144B01229A61124B0722DA61114BCA
:1099480002221A620F4B04225A620E4B01229A62BB
:109958000C4B0522DA620B4B02221A63094B1C22BC
:109968005A63084B08229A63064B0022DA630548BB
:1099780002F08AFB0346002B01D0FFF774FE00BFFC
:1099880080BD00BF3C020020006C004080B5A0B044
:1099980000AF786007F16C0300221A605A609A6081
:1099A800DA601A6107F11803542200211846FFF7FC
:1099B8006FFC7B681B68584A934252D14FF480531E
:1099C800BB614FF000733B6507F11803184604F0BC
:1099D800EBF80346002B01D0FFF745FE4F4B1B6801
:1099E80001334E4A13604D4B1B68012B0BD14C4B76
:1099F8009B6D4B4A43F000739365494B9B6D03F095
:109A080000737B617B69464BDB6C454A43F002037C
:109A1800D364434BDB6C03F002033B613B694FF4B7
:109A28004053FB6602233B6700237B670323BB6726
:109A38000923FB6707F16C0319463A4804F0BAFD9D
:109A480000220021562005F05EFD562005F075FD28
:109A580000220021572005F056FD572005F06DFD26
:109A680055E07B681B68304A934250D14FF48053CD
:109A7800BB614FF000733B6507F11803184604F00B
:109A880093F80346002B01D0FFF7EDFD234B1B682D
:109A98000133224A1360214B1B68012B0BD1204B49
:109AA8009B6D1F4A43F0007393651D4B9B6D03F03C
:109AB8000073FB60FB681A4BDB6C194A43F0020326
:109AC800D364174BDB6C03F00203BB60BB6818233D
:109AD800FB6602233B6700237B670323BB670B23DB
:109AE800FB6707F16C0319460E4804F063FD00227A
:109AF8000021582005F007FD582005F01EFD002222
:109B08000021592005F0FFFC592005F016FD00BF83
:109B18008037BD4680BD00BF00680040A00200201D
:109B28000010024000040048006C004080B582B07C
:109B380000AF78607B681B681F4A93421AD11F4B9D
:109B48001B68013B1D4A13601C4B1B68002B05D189
:109B58001B4B9B6D1A4A23F0007393654FF44051D9
:109B6800184804F0A9FE562005F0F5FC572005F02A
:109B7800F2FC1DE07B681B68134A934218D10F4B17
:109B88001B68013B0D4A13600C4B1B68002B05D169
:109B98000B4B9B6D0A4A23F0007393651821094803
:109BA80004F08AFE582005F0D6FC592005F0D3FCB5
:109BB80000BF0837BD4680BD00680040A0020020F5
:109BC8000010024000040048006C004080B500AF5F
:109BD800214B224A1A60204B4FF4E1225A601E4B57
:109BE80000229A601C4B0022DA601B4B00221A618B
:109BF800194B0C225A61184B00229A61164B00220D
:109C08001A62154B00225A62134B00229A621248BC
:109C180005F0BFFC0346002B01D0FFF724FD00210F
:109C28000D4806F07EFF0346002B01D0FFF71BFD11
:109C38000021094806F0B3FF0346002B01D0FFF7C7
:109C480012FD054806F034FF0346002B01D0FFF74C
:109C58000AFD00BF80BD00BFA402002000800040B4
:109C680080B59EB000AF786007F1640300221A60E7
:109C78005A609A60DA601A6107F1100354220021D1
:109C88001846FFF705FB7B681B68374A934267D184
:109C980020233B610023BB6207F11003184603F041
:109CA80083FF0346002B01D0FFF7DDFC2F4BDB6D54
:109CB8002E4A43F00103D3652C4BDB6D03F00103FF
:109CC800FB60FB68294BDB6C284A43F00203D36432
:109CD800264BDB6C03F00203BB60BB684FF44063A8
:109CE8007B660223BB660023FB6600233B670823D1
:109CF8007B6707F1640319461D4804F05BFC1D4BA4
:109D08001D4A1A601B4B23225A601A4B10229A6074
:109D1800184B0022DA60174B80221A61154B00227B
:109D28005A61144B00229A61124B0022DA61114BDE
:109D380000221A620F4804F0EBFE0346002B01D004
:109D4800FFF791FC7B680B4ADA670A4A7B689362E3
:109D5800002200215B2005F0D6FB5B2005F0EDFB1F
:109D680000BF7837BD4680BD00800040001002402B
:109D780000040048380300201C00024080B59CB055
:109D880000AF07F1600300221A605A609A60DA6037
:109D980007F1540300221A605A609A6007F13803E9
:109DA80000221A605A609A60DA601A615A619A61F0
:109DB8003B1D342200211846FFF76AFA444B454AF6
:109DC8001A60434B9F225A60414B00229A60404BD5
:109DD80040F2E732DA603E4B00221A613C4B012226
:109DE8005A613B4B00229A61394806F065FF0346E9
:109DF800002B01D0FFF737FC4FF480533B6607F187
:109E080060031946324807F061FC0346002B01D075
:109E1800FFF729FC2E4806F0A6FF0346002B01D0C9
:109E2800FFF721FC00237B650023BB650023FB654E
:109E380007F154031946264808F026FA0346002B72
:109E480001D0FFF710FC0023BB634FF4FA73FB63E8
:109E580000233B6400237B640023BB640023FB6472
:109E680000233B6507F1380300221946184807F01C
:109E78009FFA0346002B01D0FFF7F5FB00237B6018
:109E88000023BB600023FB6000233B6100237B6150
:109E98004FF40053BB610023FB6100233B620023A6
:109EA8007B624FF00073BB620023FB6200233B63BD
:109EB80000237B633B1D1946054808F07BFA0346DF
:109EC800002B01D0FFF7CFFB00BF7037BD4680BD28
:109ED80098030020002C014080B59CB000AF07F12A
:109EE800600300221A605A609A60DA6007F154032E
:109EF80000221A605A609A6007F1380300221A603B
:109F08005A609A60DA601A615A619A613B1D34227C
:109F180000211846FFF7BCF9464B474A1A60454BE3
:109F28009F225A60434B00229A60424B44F61F62BC
:109F3800DA60404B00221A613E4B08225A613D4BC1
:109F480000229A613B4806F0B7FE0346002B01D079
:109F5800FFF789FB4FF480533B6607F1600319460E
:109F6800344807F0B3FB0346002B01D0FFF77BFB17
:109F7800304806F059FF0346002B01D0FFF773FB6A
:109F880000237B650023BB650023FB6507F15403B1
:109F98001946284808F078F90346002B01D0FFF746
:109FA80062FB6023BB6344F62063FB6300233B64CE
:109FB80000237B640023BB640023FB6400233B6510
:109FC80007F13803002219461A4807F06BFA0346CE
:109FD800002B01D0FFF747FB00237B600023BB6009
:109FE8000023FB6000233B6100237B614FF4005397
:109FF800BB610023FB6100233B6200237B624FF0BF
:10A008000073BB620023FB6200233B6300237B6376
:10A018003B1D1946074808F0CDF90346002B01D02F
:10A02800FFF721FB034800F0A1F800BF7037BD46D9
:10A0380080BD00BFE40300200034014080B584B037
:10A0480000AF78607B681B68414A93423FD1414B1F
:10A058001B6E404A43F4006313663E4B1B6E03F4C9
:10A068000063FB60FB683C4B3C4A1A603A4B2A226F
:10A078005A60394B00229A60374B0022DA60364B1F
:10A0880080221A61344B4FF480725A61324B4FF47C
:10A0980080629A61304B0022DA612F4B00221A62EB
:10A0A8002D4804F035FD0346002B01D0FFF7DBFAFD
:10A0B8007B68294A5A62284A7B68936200220021F9
:10A0C8001A2005F020FA1A2005F037FA3BE07B68E1
:10A0D8001B68234A934236D11E4B1B6E1D4A43F41C
:10A0E800005313661B4B1B6E03F40053BB60BB6825
:10A0F8001C4B1D4A1A601B4B31225A60194B102207
:10A108009A60184B0022DA60164B80221A61154BB0
:10A118004FF400725A61134B4FF400629A61114B6D
:10A128000022DA610F4B00221A620E4804F0F0FC9C
:10A138000346002B01D0FFF796FA7B68094A5A625A
:10A14800084A7B68936200BF1037BD4680BD00BFD8
:10A15800002C014000100240300400203000024072
:10A1680000340140900400200800024080B588B007
:10A1780000AF786007F10C0300221A605A609A60F9
:10A18800DA601A617B681B68124A93421DD1124B30
:10A19800DB6C114A43F00103D3640F4BDB6C03F013
:10A1A8000103BB60BB684FF40043FB6002233B61C3
:10A1B80000237B610023BB610223FB6107F10C03D1
:10A1C80019464FF0904004F0F5F900BF2037BD461E
:10A1D80080BD00BF003401400010024080B400AFD1
:10A1E80000BFFDE780B400AF00BFFDE780B400AF5B
:10A1F80000BFFDE780B400AF00BFFDE780B400AF4B
:10A2080000BFFDE780B400AF00BFBD465DF8047B2A
:10A21800704780B400AF00BFBD465DF8047B70474F
:10A2280080B400AF00BFBD465DF8047B704780B5C1
:10A2380000AF02F04BFF00BF80BD000080B500AF4B
:10A24800024804F048FE00BF80BD00BF9004002013
:10A2580080B500AF024804F03EFE00BF80BD00BFDD
:10A268003803002080B500AF024804F034FE00BF78
:10A2780080BD00BF3004002080B500AF024806F062
:10A2880047FF00BF80BD00BF9803002080B500AF26
:10A29800024802F04FFC00BF80BD00BFD80100207B
:10A2A80080B500AF024802F045FC00BF80BD00BF8A
:10A2B800D801002080B500AF024802F03BFC00BF87
:10A2C80080BD00BF3C02002080B500AF024802F00C
:10A2D80031FC00BF80BD00BF3C02002080B500AF4C
:10A2E800024805F027FA00BF80BD00BFA402002085
:10A2F80080B582B000AF0F4B1B6E0E4A43F00103CE
:10A3080013660C4B1B6E03F001037B607B68094BE3
:10A318009B6D084A43F080539365064B9B6D03F091
:10A3280080533B603B6804F0C9FF00BF0837BD4657
:10A3380080BD00BF001002400D48854601F08EFE2A
:10A348000C480D490D4A002302E0D458C450043388
:10A35800C4188C42F9D30A4A0A4C002301E013605E
:10A368000432A242FBD3FEF79BFFFEF7BDFFFEE7D8
:10A378000000022000000020B40100204C32010837
:10A38800B401002058050020FEE7000080B483B027
:10A3980000AF0346FB71FB790F2B28BF0F23DBB2FD
:10A3A8001A46044B9B5C18460C37BD465DF8047B87
:10A3B800704700BFDC31010880B483B000AF0346AA
:10A3C800FB71FB79082B1FD9FB790C2B1AD9FB7968
:10A3D800102B15D9FB79142B10D9FB79182B0BD915
:10A3E800FB79202B06D9FB79302B01D80E230CE002
:10A3F8000F230AE00D2308E00C2306E00B2304E0FA
:10A408000A2302E0092300E0FB7918460C37BD4611
:10A418005DF8047B70470000B0B59CB000AF012226
:10A428000121434802F06CFA034687F86F3097F829
:10A438006F30002B0AD03F4B3C1D1D460FCD0FC47B
:10A448000FCD0FC495E80F0007C423800222022114
:10A45800394802F055FA034687F86F3097F86F309D
:10A46800002B0AD0354B3C1D1D460FCD0FC40FCD18
:10A478000FC495E80F0007C42380012201212C484E
:10A4880002F072FA034687F86F3097F86F30002BA6
:10A498000AD02B4B3C1D1D460FCD0FC40FCD0FC44A
:10A4A80095E8070084E8070002220821224802F004
:10A4B8005BFA034687F86F3097F86F30002B0AD0A5
:10A4C800204B3C1D1D460FCD0FC40FCD0FC495E882
:10A4D800070084E80700164801F0DEFF034687F806
:10A4E8006F3097F86F30002B09D0174B07F15004E5
:10A4F8001D460FCD0FC495E8070084E807000E48F5
:10A5080001F0CAFF034687F86F3097F86F30002BC9
:10A5180009D00E4B07F134041D460FCD0FC495E842
:10A52800070084E8070000BF7037BD46B0BD00BF14
:10A53800D8010020142901083C0200204429010800
:10A5480074290108A0290108CC290108E829010873
:10A55800B0B592B002AFA949A94801F012FF03466D
:10A5680087F83F3097F83F30002B0DD0A54B3C467D
:10A578001D460FCD0FC40FCD0FC40FCD0FC495E8E6
:10A5880003002060043421809F499D4801F0F9FEB2
:10A59800034687F83F3097F83F30002B0FD09B4B8E
:10A5A8003C461D460FCD0FC40FCD0FC40FCD0FC4B1
:10A5B80095E8070003C422800234130C23709449E1
:10A5C8008F4801F0DEFE034687F83F3097F83F30AA
:10A5D800002B0FD08F4B3C461D460FCD0FC40FCD1F
:10A5E8000FC40FCD0FC495E8070003C422800234BE
:10A5F800130C23708849824801F0C3FE034687F88C
:10A608003F3097F83F30002B0AD0844B3C461D461C
:10A618000FCD0FC40FCD0FC40FCD0FC42B682380EF
:10A628007F49774801F0ADFE034687F83F3097F839
:10A638003F30002B0DD07B4B3C461D460FCD0FC441
:10A648000FCD0FC40FCD0FC495E80300206004346C
:10A65800217075496A4801F094FE034687F83F3037
:10A6680097F83F30002B0AD0704B3C461D460FCD63
:10A678000FC40FCD0FC40FCD0FC42B6823806C49B6
:10A688005F4801F07EFE034687F83F3097F83F3079
:10A69800002B0DD0674B3C461D460FCD0FC40FCD88
:10A6A8000FC40FCD0FC495E8030020600434217057
:10A6B8006149534801F065FE034687F83F3097F833
:10A6C8003F30002B0CD05D4B3C461D460FCD0FC4D0
:10A6D8000FCD0FC40FCD0FC495E80F0007C423702A
:10A6E8005749474801F04DFE034687F83F3097F831
:10A6F8003F30002B0CD0534B3C461D460FCD0FC4AA
:10A708000FCD0FC40FCD0FC495E80F0007C42370F9
:10A718004D493B4801F035FE034687F83F3097F82E
:10A728003F30002B0CD0494B3C461D460FCD0FC483
:10A738000FCD0FC40FCD0FC495E80F0007C42370C9
:10A7480043492F4801F01DFE034687F83F3097F82C
:10A758003F30002B0CD03F4B3C461D460FCD0FC45D
:10A768000FCD0FC40FCD0FC495E80F0007C4237099
:10A7780039493A4801F005FE034687F83F3097F813
:10A788003F30002B0FD0364B3C461D460FCD0FC433
:10A798000FCD0FC40FCD0FC495E8070003C4228066
:10A7A8000234130C23702F492C4801F0EAFD0346AC
:10A7B80087F83F3097F83F30002B0FD02A4B3C46A4
:10A7C8001D460FCD0FC40FCD0FC40FCD0FC495E894
:10A7D800070003C422800234130C237023491F4846
:10A7E80001F0CFFD034687F83F3097F83F30002B44
:10A7F8004AD01F4B3C461D460FCD3BE008000020C9
:10A80800D8010020042A0108200000203C2A010861
:10A8180038000020782A010898000020B42A01088E
:10A8280050000020E82A010868000020202B0108B9
:10A8380080000020542B0108B00000208C2B010858
:10A84800C8000020CC2B0108E00000200C2C0108D7
:10A85800F80000204C2C0108100100203C020020C8
:10A868008C2C010828010020C82C01084001002078
:10A87800042D01080FC40FCD0FC40FCD0FC495E8E8
:10A8880003002060043421803149324801F079FD09
:10A89800034687F83F3097F83F30002B0AD02E4BFD
:10A8A8003C461D460FCD0FC40FCD0FC40FCD0FC4AE
:10A8B8002B6823802949274801F063FD034687F860
:10A8C8003F3097F83F30002B0AD0254B3C461D46B9
:10A8D8000FCD0FC40FCD0FC40FCD0FC42B6823802D
:10A8E800012300930123022202211E4801F0A3FD47
:10A8F800034687F83F3097F83F30002B0AD01A4BB1
:10A908003C461D460FCD0FC40FCD0FC495E803007C
:10A9180084E80300012300930123022202210D4849
:10A9280001F089FD034687F83F3097F83F30002B48
:10A938000AD00E4B3C461D460FCD0FC40FCD0FC499
:10A9480095E8030084E8030000BF4037BD46B0BD6A
:10A95800700100203C0200203C2D01085801002015
:10A96800702D0108D8010020A42D0108CC2D010864
:10A9780080B58EB000AFF860B9607A60FB70BB68D4
:10A988003B6100237B610023BB61FB781846FFF71E
:10A9980013FD0346FB6100233B624FF480137B6287
:10A9A8004FF40013BB620023FB6200233B6307F1F3
:10A9B80010037A681946F86801F006FE034687F81E
:10A9C800373097F83730002B01D0002300E00123FF
:10A9D80018463837BD4680BD80B586B000AF786070
:10A9E8000B46FB7040F287337B6107F108030022B6
:10A9F8001A605A600723FB74FA7C07F10803796828
:10AA0800184607F03DFFFB78FB7307F1080208239F
:10AA180079690348FFF7ACFF00BF1837BD4680BD12
:10AA2800D8010020B0B58CB000AF78603960202321
:10AA3800FB62234B5B78002B1DD0224B1B68002B3D
:10AA480002D0204B00221A603B681B7887F82B3015
:10AA580097F92B30002B07DA01F038F8194B1B68EF
:10AA68000233184A136006E001F042F8154B1B68E0
:10AA78000233144A13607B68DB68DBB21846FFF7C1
:10AA880085FC03463A68F96A0F48FFF771FF0346E9
:10AA980087F82A3097F82A3083F00103DBB2002BBD
:10AAA80009D00A4B07F108041D460FCD0FC495E8DD
:10AAB8000F0084E80F0000BF3037BD46B0BD00BFAF
:10AAC80000000020F40400203C020020F42D0108BE
:10AAD800B0B58EB000AF786039601B4B5B78002B47
:10AAE8002ED0194B9B78002B02D030237B6305E0D6
:10AAF800154BDB78002B22D031237B637B68DB6826
:10AB0800DBB21846FFF742FC03463A68796B0F48F8
:10AB1800FFF72EFF034687F8333097F8333083F07A
:10AB28000103DBB2002B0BD0094B07F10C041D46C7
:10AB38000FCD0FC40FCD0FC42B68236000E000BFFA
:10AB48003837BD46B0BD00BF000000203C020020E1
:10AB5800142E0108B0B58CB000AF78603960382386
:10AB6800FB62144B5B78002B1FD07B68DB68DBB281
:10AB78001846FFF70BFC03463A68F96A0E48FFF7D8
:10AB8800F7FE034687F82B3097F82B3083F0010344
:10AB9800DBB2002B09D0094B07F108041D460FCD85
:10ABA8000FC40FCD0FC42B68238000BF3037BD46BC
:10ABB800B0BD00BF000000203C020020382E010874
:10ABC800B0B58CB000AF786039601B4B5B78002B58
:10ABD8002ED0194B9B78002B02D04023FB6205E056
:10ABE800154BDB78002B22D04123FB627B68DB68A6
:10ABF800DBB21846FFF7CAFB03463A68F96A0F4802
:10AC0800FFF7B6FE034687F82B3097F82B3083F012
:10AC18000103DBB2002B0BD0094B07F108041D46DA
:10AC28000FCD0FC495E80F0084E80F0000E000BFC7
:10AC38003037BD46B0BD00BF000000203C020020F8
:10AC48005C2E0108B0B58CB000AF786039607B68C5
:10AC58001B68A3F58A73FB627B68DB68DBB2184666
:10AC6800FFF794FB03463A68F96A0D48FFF780FE40
:10AC7800034687F82B3097F82B3083F00103DBB2BB
:10AC8800002B09D0074B07F108041D460FCD0FC450
:10AC98000FCD0FC42B68238000BF3037BD46B0BD31
:10ACA8003C0200207C2E0108B0B58CB000AF786063
:10ACB80039607B681B68F23BFB627B68DB68DBB250
:10ACC8001846FFF763FB03463A68F96A0D48FFF731
:10ACD8004FFE034687F82B3097F82B3083F001039B
:10ACE800DBB2002B09D0084B07F108041D460FCD35
:10ACF8000FC40FCD0FC42B68238000BF3037BD466B
:10AD0800B0BD00BF3C020020A02E010880B582B073
:10AD180000AF786039607B681B68892B1AD8812B53
:10AD280053D3813B082B50D801A252F823F000BF1F
:10AD380065AD000883AD0008D3AD0008D3AD0008A9
:10AD4800D3AD0008A1AD0008D3AD0008D3AD00080D
:10AD5800ABAD0008B3F5817F28D036E0204B1B78D7
:10AD680083F00103DBB2002B31D139687868FFF733
:10AD7800AFFE1B4B00221A702EE0194B1B7883F094
:10AD88000103DBB2002B24D139687868FFF7A0FEF5
:10AD9800134B00221A701FE039687868FFF7DAFE53
:10ADA8001AE039687868FFF73DFE15E00D4B1B780F
:10ADB80083F00103DBB2002B0DD139687868FFF707
:10ADC800FFFE084B00221A7006E000BF04E000BF37
:10ADD80002E000BF00E000BF0837BD4680BD00BFED
:10ADE800D5010020D6010020B0B58EB000AF786044
:10ADF800396028237B637B68DB68DBB21846FFF782
:10AE0800C5FA03463A68796B0E48FFF7B1FD034669
:10AE180087F8333097F8333083F00103DBB2002B27
:10AE28000CD0094B07F10C041D460FCD0FC40FCDF4
:10AE38000FC495E8030020600434217000BF383740
:10AE4800BD46B0BD3C020020C42E0108B0B58CB090
:10AE580000AF786039607B681B68A3F56073FB629C
:10AE68007B681B68B3F5806F07D1324B1B78002BCA
:10AE780003D0304B00221A7036E07B681B6840F222
:10AE88000142934207D12C4B1B78002B03D02A4B4D
:10AE980000221A7028E07B681B6840F20242934245
:10AEA80007D1264B1B78002B03D0244B00221A70A5
:10AEB8001AE07B681B6840F20342934207D1204B9B
:10AEC8001B78002B03D01E4B00221A700CE07B6805
:10AED8001B6840F20442934227D11A4B1B78002B7F
:10AEE80023D0184B00221A707B68DB68DBB2184647
:10AEF800FFF74CFA03463A68F96A1348FFF738FD3A
:10AF0800034687F82B3097F82B3083F00103DBB228
:10AF1800002B0BD00D4B07F108041D460FCD0FC4B5
:10AF28000FCD0FC42B68238000E000BF3037BD462B
:10AF3800B0BD00BFD0010020D1010020D201002007
:10AF4800D3010020D40100203C020020EC2E01088F
:10AF580080B584B000AF786039607B68DB68DBB2AD
:10AF68001846FFF713FA03461A4607F1080339682B
:10AF7800184607F085FC3B7A002B02D101F03AF81D
:10AF880000E000BF00BF1037BD4680BD80B5F8B0F7
:10AF980000AF07F5F073A3F5EE73186007F5F073CB
:10AFA800A3F5F073196007F5F073A3F5F0731B6848
:10AFB8001B78012B40F0E08007F5F073A3F5CA7306
:10AFC800184600F081FE07F5E673072200211846AF
:10AFD800FEF75EF9012387F8CC314FF4C073A7F868
:10AFE800DC310723A7F8DA31B7F8DA31C3F14003C7
:10AFF800A7F8D831B7F8DC31B7F8D821B3FBF2F1AC
:10B0080001FB02F29B1A9BB2002B09D1B7F8DC2195
:10B01800B7F8D831B2FBF3F39BB2A7F8CF310AE007
:10B02800B7F8DC21B7F8D831B2FBF3F39BB20133A0
:10B038009BB2A7F8CF310123A7F8DE3193E0B7F828
:10B04800DE31A7F8CD31B7F8DE31013B9BB2B7F856
:10B05800D82112FB03F39BB2B7F8DC21D31AA7F867
:10B06800D631B7F8D621B7F8D8319A423BD3B7F8DA
:10B07800D831A7F8D13107F10C0340220021184636
:10B08800FEF706F9B7F8DA2107F5E67107F10C03C0
:10B09800184607F0F5FBB7F8DA3107F10C02D018BB
:10B0A800B7F8DE31013BB7F8D82102FB03F31A46A3
:10B0B80007F14C031344B7F8D821194607F0E0FB11
:10B0C80007F10C02402340F287312E48FFF750FC6D
:10B0D800034687F8D53197F8D53183F00103DBB201
:10B0E800002BEDD13AE0B7F8D631A7F8D13107F106
:10B0F8000C03302200211846FEF7CAF8B7F8DA2107
:10B1080007F5E67107F10C03184607F0B9FBB7F825
:10B11800DA3107F10C02D018B7F8DE31013BB7F885
:10B12800D82102FB03F31A4607F14C031344B7F87E
:10B13800D621194607F0A4FB07F10C02302340F290
:10B1480087311048FFF714FC034687F8D53197F884
:10B15800D53183F00103DBB2002BEDD1B7F8DE3136
:10B168000133A7F8DE31B7F8CF319BB2B7F8DE214B
:10B178009A427FF664AF00E000BF00BF07F5F077A2
:10B18800BD4680BDD8010020B0B58CB000AF786056
:10B1980039607B681B6803F58A73FB627B68DB6830
:10B1A800DBB21846FFF7F2F803463A68F96A0D4829
:10B1B800FFF7DEFB034687F82B3097F82B3083F038
:10B1C8000103DBB2002B09D0074B07F108041D4629
:10B1D8000FCD0FC40FCD0FC42B68238000BF3037AD
:10B1E800BD46B0BDD8010020102F0108B0B58CB005
:10B1F80000AF786039607B681B68F233FB627B685C
:10B20800DB68DBB21846FFF7C1F803463A68F96A0B
:10B218000D48FFF7ADFB034687F82B3097F82B3026
:10B2280083F00103DBB2002B09D0084B07F10804B7
:10B238001D460FCD0FC40FCD0FC42B68238000BF50
:10B248003037BD46B0BD00BFD8010020342F0108FB
:10B25800B0B58CB000AF786039607B681B6803F5C7
:10B268006073FB627B68DB68DBB21846FFF78EF819
:10B2780003463A68F96A0D48FFF77AFB034687F8F0
:10B288002B3097F82B3083F00103DBB2002B09D069
:10B29800074B07F108041D460FCD0FC40FCD0FC48F
:10B2A8002B68238000BF3037BD46B0BDD8010020D1
:10B2B800582F0108B0B58EB000AF78603960892387
:10B2C8007B63234B5B78002B1DD0224B1B68002B24
:10B2D80002D0204B00221A603B681B7887F8333075
:10B2E80097F93330002B07DA00F0F0FB194B1B6895
:10B2F8000233184A136006E000F0FAFB154B1B688E
:10B308000233144A13607B68DB68DBB21846FFF728
:10B318003DF803463A68796B0F48FFF729FB034667
:10B3280087F8323097F8323083F00103DBB2002B14
:10B3380009D00A4B07F10C041D460FCD0FC40FCDE1
:10B348000FC42B68236000BF3837BD46B0BD00BFAF
:10B3580000000020F4040020D80100207C2F010800
:10B36800B0B58EB000AF786039604FF4B8737B63C6
:10B378007B68DB68DBB21846FFF708F803463A68D3
:10B38800796B0F48FFF7F4FA034687F8333097F8DC
:10B39800333083F00103DBB2002B0CD0094B07F1EB
:10B3A8000C041D460FCD0FC40FCD0FC495E8030044
:10B3B80020600434217000BF3837BD46B0BD00BFDF
:10B3C800D8010020A02F0108B0B58CB000AF78607C
:10B3D80039607B681B68302B03D1812387F82F30B5
:10B3E80006E07B681B68312B02D1822387F82F3057
:10B3F80097F82F407B68DB68DBB21846FEF7C6FF7C
:10B4080003463A6821460D48FFF7B2FA034687F823
:10B418002E3097F82E3083F00103DBB2002B09D0D1
:10B42800074B07F10C041D460FCD0FC495E80F001C
:10B4380084E80F0000BF3037BD46B0BDD8010020FA
:10B44800C82F0108B0B58EB000AF78603960862388
:10B458007B637B68DB68DBB21846FEF797FF034621
:10B468003A68796B0E48FFF783FA034687F833305A
:10B4780097F8333083F00103DBB2002B0CD0094B73
:10B4880007F10C041D460FCD0FC40FCD0FC495E86E
:10B49800030020600434218000BF3837BD46B0BDAA
:10B4A800D8010020E82F0108B0B58EB000AF786051
:10B4B80039604FF482737B637B68DB68DBB21846C4
:10B4C800FEF764FF03463A68796B0D48FFF750FAB8
:10B4D800034687F8333097F8333083F00103DBB243
:10B4E800002B09D0074B07F10C041D460FCD0FC4E4
:10B4F8000FCD0FC42B68236000BF3837BD46B0BDE1
:10B50800D80100201030010880B582B000AF786003
:10B5180039607B681B68203B212B6AD801A252F84E
:10B5280023F000BFB5B50008FBB50008FBB500085F
:10B53800FBB50008FBB50008FBB50008FBB5000823
:10B54800FBB50008BFB50008FBB50008FBB500084F
:10B55800FBB50008FBB50008FBB50008FBB5000803
:10B56800FBB50008C9B50008D3B50008FBB500084D
:10B57800FBB50008FBB50008FBB50008FBB50008E3
:10B58800FBB50008DDB50008FBB50008FBB50008F1
:10B59800FBB50008FBB50008FBB50008FBB50008C3
:10B5A800FBB50008E7B50008F1B500083968786808
:10B5B800FFF780FE1EE039687868FFF7D1FE19E0D2
:10B5C80039687868FFF700FF14E039687868FFF792
:10B5D800FBFE0FE039687868FFF734FF0AE0396846
:10B5E8007868FFF761FF05E039687868FFF75CFF66
:10B5F80000E000BF00BF0837BD4680BD80B483B0FF
:10B6080000AF78603960114B1B68B3F5807F0CD1AF
:10B618007B681B6840F20112934211D10C4B012246
:10B628005A700B4B00221A710AE07B681B68B3F54D
:10B63800807F05D1064B01225A70054B00221A71F2
:10B6480000BF0C37BD465DF8047B7047F00400204E
:10B6580000000020B0B5ACB000AF786039603B683E
:10B66800012B0AD1444B07F198041D460FCD0FC496
:10B6780095E8030084E8030014E03B68042B0BD131
:10B688003E4B07F180041D460FCD0FC495E803001B
:10B6980020600434217005E0394B07F170040FCBAA
:10B6A80007C423707B681A68364B1B689A425FD1BF
:10B6B80007F1300307F108024021786800F0C8FF5D
:10B6C800FB6A002B54D1BB6A062B50D801A252F852
:10B6D80023F000BF1DB70008F9B600080BB7000833
:10B6E8002FB7000853B7000865B7000841B700082E
:10B6F80007F1300207F1080311461846FFF7A2FACE
:10B7080036E007F1300207F1080311461846FFF743
:10B71800CBFA2DE007F1300207F10803114618466D
:10B72800FFF7F4FA24E007F1300207F108031146A5
:10B738001846FFF759FB1BE007F1300207F1080331
:10B7480011461846FFF782FB12E007F1300207F1B5
:10B75800080311461846FFF7FBFB09E007F1300222
:10B7680007F1080311461846FFF710FC00E000BF78
:10B7780000BFB037BD46B0BD343001084C300108B9
:10B7880064300108D8010020B0B5ACB000AF7860D3
:10B7980039603B68082B0AD1394B07F198041D46DC
:10B7A8000FCD0FC495E8030084E8030014E03B685C
:10B7B800202B0BD1334B07F180041D460FCD0FC44E
:10B7C80095E8030020600434217005E02E4B07F152
:10B7D80070040FCB07C423707B681A682B4B1B6857
:10B7E8009A4249D107F1300307F1080241217868EC
:10B7F80000F02EFFFB6A002B3ED1BB6A073B042BEF
:10B8080039D801A252F823F025B8000837B8000843
:10B818005BB800086DB8000849B8000807F13002A5
:10B8280007F1080311461846FFF7AEFC24E007F1BC
:10B83800300207F1080311461846FFF7D7FC1BE052
:10B8480007F1300207F1080311461846FFF700FD1B
:10B8580012E007F1300207F1080311461846FFF716
:10B8680053FE09E007F1300207F1080311461846B4
:10B87800FFF7C4FE00E000BF00BFB037BD46B0BD53
:10B88800743001088C300108A43001083C02002003
:10B8980080B483B000AF0346FB71FB79002B07D05F
:10B8A8000A4B4FF480721A60094B01229A7006E025
:10B8B800064B40F201121A60054B0122DA7000BFF4
:10B8C8000C37BD465DF8047B704700BFF0040020CC
:10B8D8000000002080B582B000AF214B5B78002BC0
:10B8E8000FD01F4B1B790133DAB21D4B1A711C4B59
:10B8F8001B79092B05D91A4B00225A70184B0022C4
:10B908001A71174B1B78002B01D0012300E000238C
:10B918003B70134B5B78002B01D0012300E0002320
:10B928007B700F4B9B78002B01D0012300E0002394
:10B93800BB700B4BDB78002B01D0012300E0002308
:10B94800FB70074B1B793B71064B19683A46052378
:10B958000548FFF70DF800BF0837BD4680BD00BF9A
:10B9680000000020F00400203C020020B0B58AB09E
:10B9780000AF78603549364800F072FF034687F813
:10B98800273097F82730002B41D1304B5B69002BCB
:10B998003DD02F4800F0A8FD034687F827306420E3
:10B9A80001F0B2FB97F82730002BF2D1284800F0BD
:10B9B800C5FC034687F82730642001F0A5FB97F8FB
:10B9C8002730002BF2D1224800F05EFB034687F8AF
:10B9D8002730642001F098FB97F82730002BF2D12C
:10B9E800642001F091FB1A4800F056FD034687F8E1
:10B9F800273097F82730002B09D0164B07F1080499
:10BA08001D460FCD0FC495E8070084E807001249CA
:10BA1800124800F025FF034687F8263097F82630AD
:10BA2800002B0ED10C4B5B69002B08D07B680133CF
:10BA38007B607B68012B04D900F0DCFA01E000236D
:10BA48007B607B6818462837BD46B0BDF8040020E7
:10BA5800D8010020CC290108240500203C02002040
:10BA680080B582B000AF08214FF0904003F006F88F
:10BA78000346FB71FB79012B03D1054B01221A7098
:10BA880002E0034B00221A7000BF0837BD4680BD94
:10BA98005005002080B582B000AF0346FB71FB79EA
:10BAA8001A464021034803F001F800BF0837BD4695
:10BAB80080BD00BF0004004880B500AF8021024867
:10BAC80003F00CF800BF80BD0004004880B483B0C8
:10BAD80000AF4FF4FA637B60044B1B687A685A63C3
:10BAE80000BF0C37BD465DF8047B7047E4030020B7
:10BAF80080B483B000AF4FF47A737B60044B1B684B
:10BB08007A685A6300BF0C37BD465DF8047B7047FE
:10BB1800E403002080B400AF094BDB68084A43F017
:10BB28008073D360074B00225A60064B1B68054A96
:10BB380043F00103136000BFBD465DF8047B704706
:10BB4800F0ED00E0001000E080B588B000AF78604C
:10BB580039600023BB6102F0E1FA0346FB77FB7F03
:10BB6800002BF8D10023BB600123FB607B683B619D
:10BB78003B687B6107F1180207F108031146184674
:10BB880002F0B6FB0346FB77FB7F002BF2D1BB69C3
:10BB9800B3F1FF3FEED102F0E3FA0346FB77FB7FF8
:10BBA800002BF8D1FB7F002B01D0002300E00123FC
:10BBB80018462037BD4680BD80B586B000AFF86016
:10BBC800B9607A6002F0AAFA0346FB74FB7C002B8A
:10BBD800F8D100237B6111E07B69DA00FB68D1189A
:10BBE8007B69DB00BA681344D3E90023002002F024
:10BBF80029FA0346FB747B6901337B617A697B68A8
:10BC08009A42E9D302F0ACFA0346FB74FB7C002BA2
:10BC1800F8D1FB7C002B01D1012300E0002318465A
:10BC28001837BD4680BD000080B489B000AFF86009
:10BC3800B9607A60FB68BB6100237B61BA697B6885
:10BC48001344204A934201D9002334E0BB6903F02E
:10BC58000103002B01D000232DE00023FB6125E028
:10BC6800BA69FB6913441B687B61BA68FB691344B2
:10BC78007A69D2B21A707B69190AFB690133BA680A
:10BC88001344CAB21A707B69190CFB690233BA688B
:10BC98001344CAB21A707B69190EFB690333BA6878
:10BCA8001344CAB21A70FB690433FB61FA697B68F2
:10BCB8009A42D5D3012318462437BD465DF8047B44
:10BCC800704700BF0000040880B5ADF5447D00AFA3
:10BCD80007F54473A3F543731860002387F80F33FF
:10BCE80007F10C034FF4C07219461A48FFF79CFF7E
:10BCF800034687F80F3397F80F3383F00103DBB25D
:10BD0800002BEDD107F54473A3F5C27207F5447310
:10BD1800A3F54173104619464FF4C0731A4606F04E
:10BD2800AFFD07F54473A3F543731A6807F5447329
:10BD3800A3F5C273104619464FF4C0731A4606F0AD
:10BD48009FFD07F54473A3F54373186807F5447717
:10BD5800BD4680BD00F8030880B5E2B000AF07F526
:10BD6800C473A3F5C273186007F5C473A3F5C07252
:10BD780007F5C473A3F5C2731B68104619464FF440
:10BD8800C0731A4606F07CFD07F1080330221946F5
:10BD98000348FFF711FF00BF07F5C477BD4680BD14
:10BDA80000F8030880B5E0B000AF07F5C073A3F54D
:10BDB800C0731846FFF788FF07F5C073A3F5C07373
:10BDC800D3F87431002B0AD007F5C073A3F5C073FC
:10BDD800D3F87031054A934201D1012300E00023D2
:10BDE800184607F5C077BD4680BD00BFDEC0ADDE92
:10BDF800B0B58AB000AF7860002387F827307B6839
:10BE0800002B1CD1134B07F108041D460FCD0FC49E
:10BE180095E8070084E8070007F108031B22194684
:10BE28000D4803F007FC0346002B14BF0123002331
:10BE380087F8273097F82730002BEDD106E001214D
:10BE48007F20FFF781FE7868FFF786FF2837BD4619
:10BE5800B0BD00BF6C310108A4020020B0B59AB093
:10BE680000AF7860002387F867307B68002B18D113
:10BE78005A4B07F134041D460FCD0FC495E807004F
:10BE880084E8070007F134031B221946544803F0DD
:10BE9800D1FB034687F85B3097F85B30002BF1D174
:10BEA80099E0504B3B66504BFB653B6EDBB287F825
:10BEB80054303B6E1B0ADBB287F855303B6E1B0CC7
:10BEC800DBB287F856303B6E1B0EDBB287F8573073
:10BED800FB6DDBB287F85030FB6D1B0ADBB287F8CD
:10BEE8005130FB6D1B0CDBB287F85230FB6D1B0E1B
:10BEF800DBB287F853307B68603307F154010422C2
:10BF0800184606F0ADFC0346002B29D0012387F81C
:10BF18006730364B07F10C041D460FCD0FC40FCD0B
:10BF28000FC42B681A46228002341B0C237007F1B9
:10BF38000C03222219462A4803F07CFB034687F8A3
:10BF48005B3097F85B30002BF1D17B6860331022AF
:10BF580020211846FDF79CF97B6860337A6D1A60DA
:10BF68007B68703307F150010422184606F078FC0C
:10BF78000346002B28D0012387F867301C4B07F1B4
:10BF88000C041D460FCD0FC40FCD0FC495E8030058
:10BF980020600434218007F10C032522194610483B
:10BFA80003F048FB034687F85B3097F85B30002BBB
:10BFB800F1D17B687033102220211846FDF768F90B
:10BFC8007B6870333A6D1A6097F86730002B02D09F
:10BFD8007868FFF70DFF6837BD46B0BD6C310108C2
:10BFE800A40200202B0000010EC816698831010840
:10BFF800AC31010880B500AF03F0BBFA00BF80BDCB
:10C0080080B5E2B000AF144A07F5C07392E80300A8
:10C0180018600433198002330A0C1A7007F5C073CC
:10C0280000211846FEF7D8FC07F5C473A3F5C473BE
:10C038001846FFF749FE07F5C473A3F5C473002239
:10C04800C3F874213B461846FFF7D2FE00BF07F538
:10C05800C477BD4680BD00BFD431010880B400AFAD
:10C06800074BD3F88830064A43F47003C2F8883087
:10C07800034B044A9A6000BFBD465DF8047B7047D5
:10C0880000ED00E00090000880B584B000AF786053
:10C098007B68002B01D1012347E17B6893F85C3072
:10C0A800DBB2002B06D17B68002283F85D2078681C
:10C0B800FDF76CFC7B681B689A697B681B6822F03B
:10C0C80010029A6101F014F8F86012E001F010F81B
:10C0D8000246FB68D31A0A2B0BD97B681B6E43F008
:10C0E80001027B681A667B68032283F85C200123BF
:10C0F8001BE17B681B689B6903F00803082BE5D0EC
:10C108007B681B689A697B681B6842F001029A6128
:10C1180000F0EEFFF86012E000F0EAFF0246FB686C
:10C12800D31A0A2B0BD97B681B6E43F001027B687C
:10C138001A667B68032283F85C200123F5E07B689C
:10C148001B689B6903F00103002BE5D07B681B6823
:10C158009A697B681B6842F002029A617B681B68D7
:10C16800744A934203D1744A7B685B6813607B68A6
:10C178001B7C012B08D17B681B689A697B681B684C
:10C1880022F040029A6107E07B681B689A697B6825
:10C198001B6842F040029A617B685B7C012B08D1E6
:10C1A8007B681B689A697B681B6842F480429A61C5
:10C1B80007E07B681B689A697B681B6822F48042E9
:10C1C8009A617B689B7C012B08D17B681B689A6904
:10C1D8007B681B6822F480529A6107E07B681B68C1
:10C1E8009A697B681B6842F480529A617B681B6875
:10C1F8009B6923F440717B689A687B681B680A43D3
:10C208009A617B681B689A697B681B6822F0A402A4
:10C218009A617B681B681A697B681B6822F01002A8
:10C228001A617B68DB68012B08D17B681B689A69F7
:10C238007B681B6842F004029A612CE07B68DB682B
:10C24800002B28D07B68DB68022B1CD07B681B681E
:10C258009A697B681B6842F080029A617B681B6858
:10C268001A697B681B6842F010021A617B68DB68F8
:10C27800032B10D17B681B689A697B681B6842F0A6
:10C2880020029A6107E07B681B689A697B681B68D3
:10C2980042F020029A617B689B69013B5A067B68E1
:10C2A800DB69013B1B021A437B681B6A013B42EABC
:10C2B80003017B685B69013B1A047B681B680A43BE
:10C2C800DA617B689B68B3F5407F15D17B689B6A10
:10C2D8005A1E7B68DB6A013B1B021A437B681B6B97
:10C2E800013B1B0142EA03017B685B6A013B1A04BC
:10C2F8007B681B680A43DA607B681B68D3F8C01048
:10C308007B68DA6B7B681B680A43C3F8C0207868CF
:10C3180000F0A2FD7B6800229A657B6800221A66FD
:10C328007B68012283F85C20002318461037BD463D
:10C3380080BD00BF006400400065004080B582B049
:10C3480000AF78607B68002B01D1012315E0786885
:10C3580000F0CAF87B681B68DA6D7B681B6822F0FE
:10C368000302DA657868FDF7E1FB7B6800221A664C
:10C378007B68002283F85C20002318460837BD46F6
:10C3880080BD80B487B000AF786039607B6893F86F
:10C398005C30FB75FB7D012B02D0FB7D022B3DD170
:10C3A8003B681B68002B19D13B689B689A073B6860
:10C3B800DB68DB061A433B681B691B041A433B68AE
:10C3C8005B6913433B617B681A6C3B685B689B0045
:10C3D8001344BB60BB683A691A601DE03B68DB68C0
:10C3E8005A073B681B6913433B613B689B689A0784
:10C3F8003B685B691343FB607B685A6C3B685B680E
:10C40800DB001344BB60BB683A691A60BB6804333D
:10C41800BB60BB68FA681A60002306E07B681B6E85
:10C4280043F002027B681A66012318461C37BD4692
:10C438005DF8047B704780B485B000AFF860B960E0
:10C448007A603B60FB6893F85C30DBB2012B16D155
:10C45800FB681B68D3F8803023F03F01BB681A01E2
:10C468007B689B001A433B685B001A43BB691A430D
:10C47800FB681B680A43C3F88020002306E0FB68BA
:10C488001B6E43F00402FB681A6601231846143732
:10C49800BD465DF8047B704780B483B000AF786018
:10C4A8007B6893F85C30DBB2012B10D17B680222E9
:10C4B80083F85C207B681B689A697B681B6822F09C
:10C4C80001029A617B6800221A66002306E07B68F5
:10C4D8001B6E43F004027B681A66012318460C376A
:10C4E800BD465DF8047B704780B485B000AF7860C6
:10C4F8000023FB607B6893F85C30DBB2022B56D1DB
:10C508007B681B689A697B681B6842F001029A6124
:10C5180011E0FB680A2B0BD97B681B6E43F0010204
:10C528007B681A667B68032283F85C20012345E058
:10C53800FB680133FB607B681B689B6903F00103A0
:10C54800002BE6D00023FB607B681B689A697B6838
:10C558001B6822F010029A6111E0FB680A2B0BD9C4
:10C568007B681B6E43F001027B681A667B680322B6
:10C5780083F85C20012321E0FB680133FB607B68C2
:10C588001B689B6903F00803082BE6D07B681B68CF
:10C598009A697B681B6842F002029A617B680022F4
:10C5A8009A657B68012283F85C20002306E07B689B
:10C5B8001B6E43F008027B681A660123184614377D
:10C5C800BD465DF8047B704780B586B000AFF86063
:10C5D800B9607A60FB6893F85C30DBB2022B2CD12F
:10C5E800FB681B68D3F8C43003F40013002B07D092
:10C5F800FB681B6E43F40072FB681A66012323E094
:10C60800FB681B68D3F8C4301B0C03F003037B6181
:10C618007B697A68B968F86800F08AFCFB681B686F
:10C6280001217A6901FA02F2C3F8CC2001227B6960
:10C638009A40FB689A65002306E0FB681B6E43F08E
:10C648000802FB681A66012318461837BD4680BDE4
:10C6580080B48BB000AFF860B9607A603B600023AB
:10C66800FB61FB6893F85C30FB76FB7E022B40F0A5
:10C67800E880BB68402B37D1FB681B68D3F8903043
:10C6880003F00F03002B07D1FB681B6E43F4807285
:10C69800FB681A660123DBE0FB681B68D3F890305F
:10C6A80003F08073B3F1807F0AD1FB681B68D3F86D
:10C6B800803003F40073B3F5007F01D10123FB61DF
:10C6C800FB681B68D3F890301B0A03F00303FA6970
:10C6D8001344FB61FB68996CFA691346DB00134449
:10C6E800DB000B447B6236E0FB681B68D3F89830AC
:10C6F80003F00F03002B07D1FB681B6E43F4807215
:10C70800FB681A660123A3E0FB681B68D3F898301E
:10C7180003F08073B3F1807F0AD1FB681B68D3F8FC
:10C72800803003F48073B3F5807F01D10123FB616E
:10C73800FB681B68D3F898301B0A03F00303FA69F7
:10C748001344FB61FB68D96CFA691346DB00134498
:10C75800DB000B447B627B6A1B6803F080427B68CA
:10C768005A607B685B68002B07D17B6A1B689B0C4F
:10C77800C3F30A027B681A6005E07B6A1B6823F032
:10C7880060427B681A607B6A1B6803F000527B6812
:10C798009A607B6A1B6803F000427B681A617B6AB7
:10C7A80004337B627B6A1B689AB27B68DA617B6AB6
:10C7B8001B681B0C03F00F027B68DA607B6A1B683E
:10C7C80003F480127B685A617B6A1B6803F40012C9
:10C7D8007B689A617B6A1B681B0E03F07F027B688B
:10C7E8001A627B6A1B68DA0F7B685A627B6A0433B9
:10C7F8007B627B6A7B6100233B620AE07A693B6A61
:10C808001A4439683B6A0B4412781A703B6A013340
:10C818003B627B68DB68114AD35C1A463B6A9342E9
:10C82800ECD3BB68402B05D1FB681B68FA69C3F8D9
:10C83800942004E0FB681B68FA69C3F89C20002375
:10C8480006E0FB681B6E43F00802FB681A660123CA
:10C8580018462C37BD465DF8047B70470432010842
:10C8680080B485B000AF786039607B681B685B6C0A
:10C87800FB60FB6803F007023B681A60FB681B0A51
:10C8880003F007023B685A60FB6803F018023B6834
:10C898009A60FB685B0903F001023B68DA60FB6899
:10C8A8009B0903F001023B681A61FB68DB0903F08E
:10C8B80001023B685A61FB68DB0A03F001023B682E
:10C8C8009A61FB681B0B03F001023B68DA61FB68A5
:10C8D8005B0B03F001023B681A62FB689B0B03F0D9
:10C8E80001023B685A62FB681B0C03F07F023B683D
:10C8F8009A62002318461437BD465DF8047B7047DA
:10C9080080B487B000AFF860B9607A60FB6893F8CC
:10C918005C30FB75FB7D012B02D0FB7D022B16D111
:10C928007B68012B09D1FB681B68996DBB68DA43EA
:10C93800FB681B680A409A6507E0FB681B68996DED
:10C94800FB681B68BA680A439A65002306E0FB681F
:10C958001B6E43F00202FB681A66012318461C3757
:10C96800BD465DF8047B704780B487B000AFF860BF
:10C97800B9607A60FB6893F85C30FB75FB7D012B2E
:10C9880003D0FB7D022B40F0C880FB681B689B6DC1
:10C998003B61BB6803F00703002B04D03B6903F03D
:10C9A8000103002B3BD0BB6803F03803002B04D0F5
:10C9B8003B6903F00203002B31D0BB6803F4E0733A
:10C9C800002B04D03B6903F00403002B27D0BB687D
:10C9D80003F4F053002B04D03B6903F00803002B49
:10C9E8001DD0BB6803F46043002B04D03B6903F0FF
:10C9F8001003002B13D0BB6803F44033002B04D082
:10CA08003B6903F02003002B09D0BB6803F47C03C7
:10CA1800002B0CD03B6903F04003002B07D1FB68C7
:10CA28001B68DA6DFB681B6842F00102DA65BB68B7
:10CA380003F00703002B04D03B6903F00103002B2C
:10CA48003BD1BB6803F03803002B04D03B6903F0EB
:10CA58000203002B31D1BB6803F4E073002B04D030
:10CA68003B6903F00403002B27D1BB6803F4F053A0
:10CA7800002B04D03B6903F00803002B1DD1BB68D1
:10CA880003F46043002B04D03B6903F01003002B30
:10CA980013D1BB6803F44033002B04D03B6903F087
:10CAA8002003002B09D1BB6803F47C03002B0CD0B6
:10CAB8003B6903F04003002B07D0FB681B68DA6D65
:10CAC800FB681B6842F00202DA65BB6803F080036A
:10CAD800002B09D0FB681B68D3F8DC10FB681B68C7
:10CAE8007A680A43C3F8DC20BB6803F48073002B20
:10CAF80009D0FB681B68D3F8E010FB681B687A68EC
:10CB08000A43C3F8E020FB681B68596DFB681B6883
:10CB1800BA680A435A65002306E0FB681B6E43F0B7
:10CB28000202FB681A66012318461C37BD465DF8E9
:10CB3800047B704780B58CB000AF78607B681B6859
:10CB48001B6D03F4E053FB627B681B685B6DFA6A3C
:10CB58001340FB627B681B681B6D03F00703BB6215
:10CB68007B681B685B6DBA6A1340BB627B681B6895
:10CB78001B6D03F038037B627B681B685B6D7A6A08
:10CB880013407B627B681B681B6D03F471033B6277
:10CB98007B681B685B6D3A6A13403B627B681B6865
:10CBA8001B6D03F46023FB617B681B685B6DFA698E
:10CBB8001340FB617B681B685B6DBB617B681B680E
:10CBC8001B6D7B617B699B0903F00103002B0CD073
:10CBD800BB699B0903F00103002B06D07B681B6827
:10CBE80040221A65786800F017F97B691B0A03F080
:10CBF8000103002B1AD0BB691B0A03F00103002BA9
:10CC080014D07B681B68D3F8D8303B617B681B68FD
:10CC1800D3F8E0303A6913403B617B681B684FF4F6
:10CC280080721A653969786800F0D7F8FB6A002BBA
:10CC380007D07B681B68FA6A1A65F96A786800F099
:10CC4800ACF8BB6A002B07D07B681B68BA6A1A6508
:10CC5800B96A7868FEF7FEFC7B6A002B07D07B6810
:10CC68001B687A6A1A65796A7868FEF78DFD7B69B0
:10CC78005B0A03F00103002B0DD0BB695B0A03F0CC
:10CC88000103002B07D07B681B684FF400721A65FC
:10CC9800786800F08DF87B69DB0903F00103002B4D
:10CCA80019D0BB69DB0903F00103002B13D07B68A3
:10CCB8001B68D3F8D430FB607B681B68D3F8DC3082
:10CCC800FA681340FB607B681B6880221A65F96864
:10CCD800786800F077F87B695B0B03F00103002BA1
:10CCE8000DD0BB695B0B03F00103002B07D07B68F9
:10CCF8001B684FF400521A65786800F079F87B6970
:10CD0800DB0B03F00103002B0DD0BB69DB0B03F039
:10CD18000103002B07D07B681B684FF400421A659B
:10CD2800786800F06FF87B699B0B03F00103002B18
:10CD380010D0BB699B0B03F00103002B0AD07B6862
:10CD48001B684FF480421A657B681B6E43F08002B3
:10CD58007B681A66FB69002B07D07B681B68FA6939
:10CD68001A65F969786800F06BF83B6A002B09D0FE
:10CD78007B681B683A6A1A657B681A6E3B6A1A43B5
:10CD88007B681A667B681B6E002B02D0786800F0FF
:10CD98004DF800BF3037BD4680BD80B483B000AFCA
:10CDA8007860396000BF0C37BD465DF8047B70477A
:10CDB80080B483B000AF786000BF0C37BD465DF823
:10CDC800047B704780B483B000AF7860396000BFDF
:10CDD8000C37BD465DF8047B704780B483B000AF64
:10CDE8007860396000BF0C37BD465DF8047B70473A
:10CDF80080B483B000AF786000BF0C37BD465DF8E3
:10CE0800047B704780B483B000AF786000BF0C37F4
:10CE1800BD465DF8047B704780B483B000AF78608E
:10CE280000BF0C37BD465DF8047B704780B483B003
:10CE380000AF786000BF0C37BD465DF8047B7047D3
:10CE480080B483B000AF7860396000BF0C37BD464E
:10CE58005DF8047B7047000080B485B000AF78604F
:10CE6800304BBB607B681B682F4A934203D1BB6879
:10CE780003F55473BB607B681B682C4A934203D14B
:10CE8800BB6803F5D463BB607B68BA681A647B68C7
:10CE98001B68D3F8803023F4F8117B685B6B1A04A5
:10CEA8007B681B680A43C3F88020BB6803F17002E3
:10CEB8007B685A647B681B68D3F8803023F0706104
:10CEC8007B689B6B1A067B681B680A43C3F8802043
:10CED800BB6803F1B0027B689A64BB6803F5C4724F
:10CEE8007B68DA64BB6803F518727B681A65BB68EF
:10CEF80003F51E727B685A65BB68FB6005E0FB683A
:10CF080000221A60FB680433FB60BB6803F55473A6
:10CF1800FA689A42F3D300BF00BF1437BD465DF8E4
:10CF2800047B704700A4004000680040006C00408B
:10CF380080B489B000AFF860B9607A603B60BB68C4
:10CF48005B68002B0AD1BB681A69BB689B681A43E7
:10CF5800BB681B689B041343FB610AE0BB681A6942
:10CF6800BB689B681A43BB681B68134343F0804344
:10CF7800FB61BB681B6A1A06BB68DB691A43BB689E
:10CF88009B691A43BB685B691A43BB68DB681B046F
:10CF980013433B61FB68596D3A681346DB00134441
:10CFA800DB000B44BB61BB69FA691A60BB690433D7
:10CFB800BB61BB693A691A60BB690433BB61002372
:10CFC8007B6120E07B6903337A6813441B781A0677
:10CFD8007B69023379680B441B781B041A437B690D
:10CFE800013379680B441B781B02134379687A690B
:10CFF8000A4412781A43BB691A60BB690433BB61DF
:10D008007B6904337B61BB68DB68064AD35C1A46DC
:10D018007B699342D6D300BF00BF2437BD465DF875
:10D02800047B70470432010880B582B000AF00234A
:10D03800FB71032002F05CFA0F2000F00DF80346A4
:10D04800002B02D00123FB7101E0FDF751F9FB79B8
:10D0580018460837BD4680BD80B584B000AF7860FB
:10D068000023FB73164B1B68002B22D0154B1A6844
:10D07800134B1B684FF47A71B1FBF3F3B2FBF3F374
:10D08800184602F07AFA0346002B0FD17B680F2B63
:10D0980009D8002279684FF0FF3002F034FA0A4AC2
:10D0A8007B68136007E00123FB7304E00123FB7333
:10D0B80001E00123FB73FB7B18461037BD4680BD9A
:10D0C80090010020880100208C01002080B400AF6E
:10D0D800054B1A68054B1B681344034A136000BFCD
:10D0E800BD465DF8047B7047540500209001002080
:10D0F80080B400AF034B1B681846BD465DF8047B3F
:10D10800704700BF5405002080B584B000AF786038
:10D11800FFF7EEFFB8607B68FB60FB68B3F1FF3F89
:10D1280004D0094B1B68FA681344FB6000BFFFF783
:10D13800DFFF0246BB68D31AFA689A42F7D800BFE5
:10D1480000BF1037BD4680BD9001002080B588B073
:10D1580000AF78607B68002B01D10123FEE27B6879
:10D168001B6803F00103002B75D0974B9B6803F0F5
:10D178000C03BB61944BDB6803F003037B61BB6961
:10D188000C2B02D17B69032B02D0BB69082B0BD176
:10D198008D4B1B6803F40033002B5BD07B685B6806
:10D1A800002B57D10123D9E27B685B68B3F5803F38
:10D1B80006D1854B1B68844A43F4803313601DE015
:10D1C8007B685B68B3F5A02F0CD17F4B1B687E4A48
:10D1D80043F4802313607C4B1B687B4A43F4803301
:10D1E80013600BE0784B1B68774A23F48033136095
:10D1F800754B1B68744A23F4802313607B685B6853
:10D20800002B13D0FFF774FF386108E0FFF770FFB9
:10D2180002463B69D31A642B01D903239EE26A4B69
:10D228001B6803F40033002BF0D014E0FFF760FF15
:10D23800386108E0FFF75CFF02463B69D31A642BAC
:10D2480001D903238AE2604B1B6803F40033002BE7
:10D25800F0D100E000BF7B681B6803F00203002BDD
:10D2680075D0594B9B6803F00C03BB61564BDB68C8
:10D2780003F003037B61BB690C2B02D17B69022B92
:10D2880002D0BB69042B1FD14F4B1B6803F480638A
:10D29800002B05D07B68DB68002B01D101235DE200
:10D2A800494B5B6823F0FE427B681B691B064649B5
:10D2B80013434B60454B1B681846FFF7CDFE0346EA
:10D2C800002B43D0012349E27B68DB68002B23D085
:10D2D8003D4B1B683C4A43F480731360FFF708FF1B
:10D2E800386108E0FFF704FF02463B69D31A022BB6
:10D2F80001D9032332E2344B1B6803F48063002B0B
:10D30800F0D0314B5B6823F0FE427B681B691B063B
:10D318002D4913434B601AE02B4B1B682A4A23F410
:10D3280080731360FFF7E4FE386108E0FFF7E0FE62
:10D3380002463B69D31A022B01D903230EE2224B82
:10D348001B6803F48063002BF0D100E000BF7B680A
:10D358001B6803F00803002B41D07B685B69002B36
:10D368001CD0194BD3F89430174A43F00103C2F884
:10D378009430FFF7BDFE386108E0FFF7B9FE0246BA
:10D388003B69D31A022B01D90323E7E10E4BD3F8EB
:10D39800943003F00203002BEFD020E00A4BD3F8BF
:10D3A8009430094A23F00103C2F89430FFF7A0FE35
:10D3B80038610DE0FFF79CFE02463B69D31A022B49
:10D3C80006D90323CAE100BF001002408C010020E7
:10D3D8008C4BD3F8943003F00203002BEAD17B681E
:10D3E8001B6803F00403002B00F0A6800023FB77E2
:10D3F800844B9B6D03F08053002B01D1012300E087
:10D408000023002B0DD07F4B9B6D7E4A43F0805349
:10D4180093657C4B9B6D03F08053FB60FB68012395
:10D42800FB77794B1B6803F48073002B18D1764B7C
:10D438001B68754A43F480731360FFF759FE38611F
:10D4480008E0FFF755FE02463B69D31A022B01D9C3
:10D45800032383E16C4B1B6803F48073002BF0D02B
:10D468007B689B68012B08D1664BD3F89030654ADE
:10D4780043F00103C2F8903024E07B689B68052BD9
:10D4880010D1604BD3F890305E4A43F00403C2F8E1
:10D4980090305C4BD3F890305A4A43F00103C2F8FD
:10D4A80090300FE0574BD3F89030564A23F00103E1
:10D4B800C2F89030534BD3F89030524A23F004030B
:10D4C800C2F890307B689B68002B16D0FFF710FEDF
:10D4D80038610AE0FFF70CFE02463B69D31A41F2B5
:10D4E8008832934201D9032338E1464BD3F8903070
:10D4F80003F00203002BEDD015E0FFF7F9FD3861CA
:10D508000AE0FFF7F5FD02463B69D31A41F288327B
:10D51800934201D9032321E13A4BD3F8903003F029
:10D528000203002BEDD1FB7F012B05D1354B9B6D01
:10D53800344A23F0805393657B681B6803F020030B
:10D54800002B3CD07B689B69002B1CD02D4BD3F85B
:10D5580098302C4A43F00103C2F89830FFF7C8FD11
:10D56800386108E0FFF7C4FD02463B69D31A022B75
:10D5780001D90323F2E0234BD3F8983003F00203D8
:10D58800002BEFD01BE01F4BD3F898301D4A23F037
:10D598000103C2F89830FFF7ABFD386108E0FFF7E8
:10D5A800A7FD02463B69D31A022B01D90323D5E014
:10D5B800144BD3F8983003F00203002BEFD17B68AB
:10D5C800DB69002B00F0C9800E4B9B6803F00C034D
:10D5D8000C2B00F083807B68DB69022B5ED1094B42
:10D5E8001B68084A23F080731360FFF781FD3861D8
:10D5F8000CE0FFF77DFD02463B69D31A022B05D9E3
:10D608000323ABE00010024000700040554B1B683C
:10D6180003F00073002BECD1524BDA68524B1340E5
:10D628007A68116A7A68526A013A120111437A6873
:10D63800926A120211437A68126B5208013A520533
:10D6480011437A68526B5208013A520611437A68BC
:10D65800D26AD2060A4343491343CB60414B1B6845
:10D66800404A43F0807313603E4BDB683D4A43F009
:10D678008073D360FFF73CFD386108E0FFF738FDA1
:10D6880002463B69D31A022B01D9032366E0354BC6
:10D698001B6803F00073002BF0D05EE0314B1B6871
:10D6A800304A23F080731360FFF722FD386108E0E9
:10D6B800FFF71EFD02463B69D31A022B01D903234B
:10D6C8004CE0284B1B6803F00073002BF0D1254B6E
:10D6D800DA682449254B1340CB603EE07B68DB6960
:10D6E800012B01D1012339E01E4BDB687B617B698B
:10D6F80003F003027B681B6A9A422CD17B6903F012
:10D70800F0027B685B6A013B1B019A4223D17B696B
:10D7180003F4FE427B689B6A1B029A421BD17B6919
:10D7280003F078427B68DB6ADB069A4213D17B6997
:10D7380003F4C0027B681B6B5B08013B5B059A42E4
:10D7480009D17B6903F0C0627B685B6B5B08013BB6
:10D758005B069A4201D0012300E0002318462037D7
:10D76800BD4680BD001002400C809F01FCFFEEFE0C
:10D7780080B586B000AF7860396000237B617B6834
:10D78800002B01D101231EE1914B1B6803F00F030D
:10D798003A689A4210D98E4B1B6823F00F028C49C5
:10D7A8003B6813430B608A4B1B6803F00F033A680E
:10D7B8009A4201D0012306E17B681B6803F001034C
:10D7C800002B73D07B685B68032B29D1814B1B68C6
:10D7D80003F00073002B01D10123F4E000F09EF95F
:10D7E80038613B697C4A93423FD97A4B9B6803F086
:10D7F800F003002B09D07B681B6803F00203002BA1
:10D8080033D07B689B68002B2FD1724B9B6823F029
:10D81800F003704A43F08003936080237B6124E027
:10D828007B685B68022B07D16A4B1B6803F40033E3
:10D83800002B09D10123C6E0664B1B6803F4806303
:10D84800002B01D10123BEE000F0CEF838613B691E
:10D85800614A934209D95F4B9B6823F0F0035D4A04
:10D8680043F08003936080237B615A4B9B6823F0CD
:10D8780003027B685B68574913438B60FFF738FCEA
:10D88800F8600AE0FFF734FC0246FB68D31A41F25D
:10D898008832934201D9032395E04E4B9B6803F0ED
:10D8A8000C027B685B689B009A42EBD17B681B6823
:10D8B80003F00203002B23D07B681B6803F00403EA
:10D8C800002B05D0434B9B68424A43F4E0639360C6
:10D8D8007B681B6803F00803002B07D03D4B9B684F
:10D8E80023F47C533B4A43F4E0639360394B9B68D1
:10D8F80023F0F0027B689B68364913438B6008E08D
:10D908007B69802B05D1334B9B68324A23F0F003A7
:10D9180093602F4B1B6803F00F033A689A421DD29D
:10D928002B4B1B6823F00F0229493B6813430B60FC
:10D93800FFF7DEFBF8600AE0FFF7DAFB0246FB6858
:10D94800D31A41F28832934201D903233BE0204B9A
:10D958001B6803F00F033A689A42EDD17B681B6895
:10D9680003F00403002B08D01A4B9B6823F4E062F1
:10D978007B68DB68174913438B607B681B6803F07F
:10D988000803002B09D0134B9B6823F460527B6873
:10D998001B69DB000F4913438B6000F025F8024632
:10D9A8000C4B9B681B0903F00F030C49CB5C03F07D
:10D9B8001F0322FA03F30A4A13600A4B1B6818462E
:10D9C800FFF74AFB034618461837BD4680BD00BF1F
:10D9D800002002400010024000B4C404EC310108E9
:10D9E800880100208C01002080B487B000AF2C4B48
:10D9F8009B6803F00C03042B02D12A4B3B6147E0E0
:10DA0800274B9B6803F00C03082B02D1264B3B6184
:10DA18003EE0234B9B6803F00C030C2B36D1204BC4
:10DA2800DB6803F00303FB601D4BDB681B0903F095
:10DA38000F030133BB60FB68032B0CD11A4ABB6888
:10DA4800B2FBF3F3164AD268120A02F07F0202FB15
:10DA580003F37B610CE0134ABB68B2FBF3F3104A93
:10DA6800D268120A02F07F0202FB03F37B6100BF57
:10DA78000B4BDB685B0E03F0030301335B007B6039
:10DA88007A697B68B2FBF3F33B6101E000233B61F9
:10DA98003B6918461C37BD465DF8047B704700BFDC
:10DAA800001002400024F40000127A0080B400AF95
:10DAB800034B1B681846BD465DF8047B704700BFE2
:10DAC8008801002080B500AFFFF7F0FF0246064B43
:10DAD8009B681B0A03F007030449CB5C03F01F0390
:10DAE80022FA03F3184680BD00100240FC310108F9
:10DAF80080B500AFFFF7DAFF0246064B9B68DB0AEA
:10DB080003F007030449CB5C03F01F0322FA03F375
:10DB1800184680BD00100240FC31010880B487B06F
:10DB280000AF1E4BDB6803F003033B611B4BDB6854
:10DB38001B0903F00F030133FB603B69032B0CD176
:10DB4800174AFB68B2FBF3F3144AD268120A02F0D0
:10DB58007F0202FB03F37B610CE0124AFB68B2FB15
:10DB6800F3F30E4AD268120A02F07F0202FB03F3B3
:10DB78007B6100BF094BDB685B0E03F003030133D5
:10DB88005B00BB607A69BB68B2FBF3F37B607B68C0
:10DB980018461C37BD465DF8047B704700100240EC
:10DBA80000127A000024F40080B586B000AF7860D7
:10DBB8000023FB740023BB747B681B6803F40023F9
:10DBC800002B00F0988000237B74434B9B6D03F07F
:10DBD8008053002B0DD1404B9B6D3F4A43F080533F
:10DBE80093653D4B9B6D03F08053BB60BB6801237D
:10DBF8007B743A4B1B68394A43F480731360FFF710
:10DC080077FAF86009E0FFF773FA0246FB68D31A5F
:10DC1800022B02D90323FB7405E0304B1B6803F485
:10DC28008073002BEFD0FB7C002B59D12A4BD3F803
:10DC3800903003F440737B617B69002B1ED07B68B6
:10DC48001B6D7A699A4219D0234BD3F8903023F48C
:10DC580040737B61204BD3F890301F4A43F48033E4
:10DC6800C2F890301C4BD3F890301B4A23F4803311
:10DC7800C2F89030184A7B69C2F890307B6903F08B
:10DC88000103002B16D0FFF733FAF8600BE0FFF71B
:10DC98002FFA0246FB68D31A41F28832934202D91E
:10DCA8000323FB7406E00C4BD3F8903003F0020317
:10DCB800002BECD0FB7C002B0BD1074BD3F890301A
:10DCC80023F440727B681B6D03491343C1F89030FD
:10DCD80008E0FB7CBB7405E00010024000700040C7
:10DCE800FB7CBB747B7C012B05D1A74B9B6DA64AA3
:10DCF80023F0805393657B681B6803F00103002BB6
:10DD08000AD0A14BD3F8883023F003027B685B6804
:10DD18009D491343C1F888307B681B6803F00203F0
:10DD2800002B0AD0984BD3F8883023F00C027B687C
:10DD38009B6895491343C1F888307B681B6803F0DA
:10DD48000403002B0AD0904BD3F8883023F030021C
:10DD58007B68DB688C491343C1F888307B681B6893
:10DD680003F00803002B0AD0874BD3F8883023F040
:10DD7800C0027B681B6984491343C1F888307B68FB
:10DD88001B6803F01003002B0AD07F4BD3F88830B0
:10DD980023F440727B685B697B491343C1F8883080
:10DDA8007B681B6803F02003002B0AD0764BD3F85E
:10DDB800883023F440627B689B6973491343C1F838
:10DDC80088307B681B6803F04003002B0AD06E4B39
:10DDD800D3F8883023F440527B68DB696A491343DF
:10DDE800C1F888307B681B6803F08003002B0AD0D9
:10DDF800654BD3F8883023F440427B681B6A62493C
:10DE08001343C1F888307B681B6803F48073002BC8
:10DE18000AD05D4BD3F8883023F440327B685B6AC4
:10DE280059491343C1F888307B681B6803F40033F1
:10DE3800002B0AD0544BD3F89C3023F003027B68A4
:10DE48009B6A51491343C1F89C307B681B6803F4F3
:10DE58000073002B0AD04C4BD3F8883023F44022AF
:10DE68007B68DB6A48491343C1F888307B681B68C4
:10DE780003F48063002B15D0434BD3F8883023F488
:10DE880040127B681B6B40491343C1F888307B689C
:10DE98001B6BB3F5801F05D13B4BDB683A4A43F453
:10DEA8008013D3607B681B6803F40063002B15D0D4
:10DEB800354BD3F8883023F440027B685B6B3249DA
:10DEC8001343C1F888307B685B6BB3F5800F05D1CD
:10DED8002D4BDB682C4A43F48013D3607B681B68A6
:10DEE80003F48053002B15D0274BD3F8883023F048
:10DEF80040727B689B6B24491343C1F888307B6868
:10DF08009B6BB3F1807F05D11F4BDB681E4A43F43E
:10DF18008013D3607B681B6803F40053002B15D073
:10DF2800194BD3F8883023F040627B68DB6B1649C5
:10DF38001343C1F888307B68DB6BB3F1006F05D100
:10DF4800114BDB68104A43F48013D3607B681B686D
:10DF580003F48043002B19D00B4BD3F8883023F0FF
:10DF680040627B681B6C08491343C1F888307B68A2
:10DF78001B6CB3F1006F09D1034BDB68024A43F411
:10DF88008013D36002E000BF001002407B681B686A
:10DF980003F40043002B15D0294BD3F8883023F025
:10DFA80040527B685B6C26491343C1F888307B6814
:10DFB8005B6CB3F1805F05D1214BDB68204A43F4E9
:10DFC8008033D3607B681B6803F48033002B15D043
:10DFD8001B4BD3F8883023F040427B689B6C184970
:10DFE8001343C1F888307B689B6CB3F1804F05D12F
:10DFF800134BDB68124A43F48033D3607B681B6899
:10E0080003F48023002B15D00D4BD3F89C3023F458
:10E0180040127B68DB6C0A491343C1F89C307B686B
:10E02800DB6CB3F5001F05D1054BDB68044A43F4EC
:10E038008013D360BB7C18461837BD4680BD00BF2F
:10E048000010024080B586B000AFF860B960C7E93B
:10E05800002300233B612F4B1B78012B01D10223A6
:10E0680053E02C4B01221A704FF47A7000F092F8AA
:10E078000346FB75FB7D002B43D1264B00225A60DB
:10E08800254B1B6803F48063002B09D0224B1B68C7
:10E09800214A23F4806313601E4B02221A7702E0A0
:10E0A8001C4B00221A77FB68002B07D1D7E9002305
:10E0B800B86800F0C1F801233B6110E0FB68012B50
:10E0C80002D0FB68022B0AD13B681946B86800F0F9
:10E0D800D9F8FB68022B02D14FF480233B614FF43F
:10E0E8007A7000F057F80346FB753B69002B06D0A1
:10E0F800094B5A693B69DB43074913404B6100F000
:10E108000FFA044B00221A70FB7D18461837BD46DB
:10E1180080BD00BF940100200020024080B483B07D
:10E1280000AF0023FB710B4B5B69002B0BDA094B2B
:10E13800094A9A60074B094A9A60064B5B69002BAB
:10E1480001DA0123FB71FB7918460C37BD465DF8EF
:10E15800047B70470020024023016745AB89EFCD5F
:10E1680080B483B000AF0123FB71094B5B69084A97
:10E1780043F000435361064B5B69002B01DA00232F
:10E18800FB71FB7918460C37BD465DF8047B704778
:10E198000020024080B584B000AF7860FEF7A8FF89
:10E1A800F86009E0FEF7A4FF0246FB68D31A7A6814
:10E1B8009A4201D2032337E01D4B1B6903F48033D5
:10E1C800B3F5803FEED01A4B1A694CF2FA3313407C
:10E1D800BB60BB68002B1DD0164B5A68BB68134345
:10E1E800144A5360BB68B3F1805F07D3104B9A6938
:10E1F800BB6803F070430E4913438B61BB6823F07F
:10E208007043002B04D00A4ABB6823F070431361A3
:10E21800012309E0064B1B6903F00103012B02D11E
:10E22800034B01221A61002318461037BD4680BDF2
:10E23800002002409401002080B485B000AFF8604F
:10E24800C7E900230E4B5B690D4A43F00103536194
:10E25800FB683A681A60BFF36F8F00BFD7E9000107
:10E268004FF000024FF000030A000023F968043160
:10E2780013460B6000BF1437BD465DF8047B70473A
:10E288000020024080B489B000AF78603960402334
:10E29800FB777B68BB613B687B61144B5B69134A06
:10E2A80043F480235361EFF31083FB60FB683B6109
:10E2B80072B600BF7B691A68BB691A60BB69043310
:10E2C800BB617B6904337B61FB7F013BFB77FB7F91
:10E2D800002BEFD13B69BB60BB6883F3108800BF9C
:10E2E80000BF2437BD465DF8047B7047002002401C
:10E2F80080B584B000AF78603960494B1B78012B3A
:10E3080001D1022387E0464B01221A704FF47A703C
:10E31800FFF740FF0346FB73FB7B002B77D1404B95
:10E3280000225A603F4B1B6803F40073002B13D084
:10E338003C4B1B6803F48063002B09D0394B1B68E6
:10E34800384A23F480631360354B03221A7716E0AA
:10E35800334B01221A7712E0324B1B6803F48063B7
:10E36800002B09D02F4B1B682E4A23F480631360BF
:10E378002B4B02221A7702E0294B00221A777B687E
:10E388001B68012B13D17B685B68184600F04CF8BA
:10E398004FF47A70FFF7FEFE0346FB73214B5B696F
:10E3A800204A23F4004323F0040353612DE03B6823
:10E3B8004FF0FF321A607B689B68BB601DE07B688A
:10E3C8005B681946B86800F067F84FF47A70FFF791
:10E3D800E1FE0346FB73134B5B69124A23F47E7319
:10E3E80023F002035361FB7B002B03D03B68BA6820
:10E3F8001A600AE0BB680133BB607B689A687B6877
:10E40800DB681344BA689A42D9D300F089F8044B00
:10E4180000221A70FB7B18461037BD4680BD00BF2E
:10E42800940100200020024080B483B000AF7860DF
:10E43800184B1B6A03F48003002B16D07B6803F08B
:10E448000103002B05D0134B5B69124A43F0040308
:10E4580053617B6803F00203002B0ED00D4B5B6900
:10E468000C4A43F40043536107E00A4B5B69094ACD
:10E4780043F4004343F004035361064B5B69054AC8
:10E4880043F48033536100BF0C37BD465DF8047B0D
:10E49800704700BF0020024080B483B000AF7860AE
:10E4A80039601E4B1B6A03F48003002B06D11B4BFB
:10E4B8005B691A4A23F40063536111E03B6803F077
:10E4C8000103002B06D0154B5B69144A23F4006343
:10E4D800536105E0114B5B69104A43F400635361D3
:10E4E8000E4B5B6923F47E727B68DB0003F4FF63E9
:10E4F8000A4913434B61094B5B69084A43F002031D
:10E508005361064B5B69054A43F48033536100BF8E
:10E518000C37BD465DF8047B704700BF0020024001
:10E5280080B483B000AF214B1B7FFB71FB79012BBB
:10E5380002D0FB79032B17D11D4B1B681C4A23F40F
:10E54800007313601A4B1B68194A43F40063136085
:10E55800174B1B68164A23F400631360144B1B689F
:10E56800134A43F400731360FB79022B02D0FB7942
:10E57800032B11D10E4B1B680D4A43F480531360D3
:10E588000B4B1B680A4A23F480531360084B1B6823
:10E59800074A43F480631360044B00221A7700BFD4
:10E5A8000C37BD465DF8047B704700BF940100201E
:10E5B8000020024080B487B000AF78603960002343
:10E5C8007B615AE13B681A6801217B6901FA03F310
:10E5D8001340FB60FB68002B00F04C813B685B68D4
:10E5E80003F00303012B05D03B685B6803F00303CA
:10E5F800022B30D17B689B683B617B695B000322FF
:10E6080002FA03F3DB433A6913403B613B68DA687B
:10E618007B695B0002FA03F33A6913433B617B6849
:10E628003A699A607B685B683B6101227B6902FA00
:10E6380003F3DB433A6913403B613B685B681B09A2
:10E6480003F001027B6902FA03F33A6913433B6161
:10E658007B683A695A603B685B6803F00303032BE5
:10E6680017D07B68DB683B617B695B00032202FA99
:10E6780003F3DB433A6913403B613B689A687B6963
:10E688005B0002FA03F33A6913433B617B683A691A
:10E69800DA603B685B6803F00303022B23D17B69D4
:10E6A800DA087B68083253F822303B617B6903F053
:10E6B80007039B000F2202FA03F3DB433A69134076
:10E6C8003B613B681A697B6903F007039B0002FA08
:10E6D80003F33A6913433B617B69DA087B680832C4
:10E6E800396943F822107B681B683B617B695B00D2
:10E6F800032202FA03F3DB433A6913403B613B68A8
:10E708005B6803F003027B695B0002FA03F33A6972
:10E7180013433B617B683A691A603B685B6803F4A2
:10E728004033002B00F0A6805B4B1B6E5A4A43F027
:10E7380001031366584B1B6E03F00103BB60BB68F3
:10E74800564A7B699B08023352F823303B617B6948
:10E7580003F003039B000F2202FA03F3DB433A6939
:10E7680013403B617B68B3F1904F1FD07B684C4AE4
:10E77800934219D07B684B4A934213D07B684A4A2C
:10E7880093420DD07B68494A934207D07B68484A38
:10E79800934201D105230AE0062308E0042306E09A
:10E7A800032304E0022302E0012300E000237A6946
:10E7B80002F00302920093403A6913433B613749E0
:10E7C8007B699B0802333A6941F82320394B9B68DF
:10E7D8003B61FB68DB433A6913403B613B685B681C
:10E7E80003F48013002B03D03A69FB6813433B61A1
:10E7F800304A3B6993602F4BDB683B61FB68DB4326
:10E808003A6913403B613B685B6803F40013002BD3
:10E8180003D03A69FB6813433B61264A3B69D360DE
:10E82800244B5B683B61FB68DB433A6913403B61FF
:10E838003B685B6803F40033002B03D03A69FB683C
:10E8480013433B611B4A3B6953601A4B1B683B618E
:10E85800FB68DB433A6913403B613B685B6803F440
:10E868008033002B03D03A69FB6813433B61114A9C
:10E878003B6913607B6901337B613B681A687B697C
:10E8880022FA03F3002B7FF49DAE00BF00BF1C37B4
:10E89800BD465DF8047B704700100240000001404F
:10E8A8000004004800080048000C00480010004818
:10E8B800001400480004014080B487B000AF7860BD
:10E8C800396000237B61BDE001227B6902FA03F312
:10E8D8003A6813403B613B69002B00F0B080604A06
:10E8E8007B699B08023352F82330FB607B6903F095
:10E8F80003039B000F2202FA03F3FA681340FB603C
:10E908007B68B3F1904F1FD07B68564A934219D069
:10E918007B68554A934213D07B68544A93420DD082
:10E928007B68534A934207D07B68524A934201D18D
:10E9380005230AE0062308E0042306E0032304E095
:10E94800022302E0012300E000237A6902F00302B7
:10E9580092009340FA689A4232D1474B1A683B6951
:10E96800DB43454913400B60434B5A683B69DB4323
:10E97800414913404B60404BDA683B69DB433E49F1
:10E988001340CB603C4B9A683B69DB433A491340E0
:10E998008B607B6903F003039B000F2202FA03F3E9
:10E9A800FB602F4A7B699B08023352F82310FB68EF
:10E9B800DA432B487B699B080A40023340F823203E
:10E9C8007B681A687B695B00032101FA03F31A4329
:10E9D8007B681A607B69DA087B68083253F8221072
:10E9E8007B6903F007039B000F2202FA03F3DB4362
:10E9F8007A69D20819407B68083243F822107B688C
:10EA0800DA687B695B00032101FA03F3DB431A40F0
:10EA18007B68DA607B685A6801217B6901FA03F335
:10EA2800DB431A407B685A607B689A687B695B00A5
:10EA3800032101FA03F3DB431A407B689A607B6980
:10EA480001337B613A687B6922FA03F3002B7FF478
:10EA58003BAF00BF00BF1C37BD465DF8047B704765
:10EA6800000001400004004800080048000C00486D
:10EA780000100048001400480004014080B485B02C
:10EA880000AF78600B467B807B681A697B881340EF
:10EA9800002B02D00123FB7301E00023FB73FB7BF7
:10EAA80018461437BD465DF8047B704780B483B0C0
:10EAB80000AF78600B467B8013467B707B78002B19
:10EAC80003D07A887B689A6102E07A887B689A62C8
